:020000040000FA
:02000000752861
:040002000034003492
:0800080022008C100000210011
:100010008C14000024008C14000027008C100000B9
:100020002000FF30F0008C1C03320130F0000A3257
:1000300020000030A3000030A100FF30A200F70034
:10004000FF30A00024008C1021008C105D202200C5
:100050008C12F30B03320130F30001328C160C10BA
:10006000F20B03320130F20001320C140C11F10BCF
:1000700003320130F10001320C15F90B0D32FF3063
:10008000F9007508F100F50A7608F200F603770822
:10009000F3007808F400F80A20000B118B16090011
:1000A0002000A600FF30A4000130A500A40BFE3301
:1000B000A60BFC33A50BFA3308002000A008031997
:1000C0000800A30AA10A2008210203190932220804
:1000D0002302031907320030A30022000C16080087
:1000E0000030A00022000C12080020008C01220029
:1000F0008C0123008C012100F030990000000000E9
:10010000000021000A308C00210095139511151173
:1001100095101510FF30F000FF30F900F030F500B9
:100120002030F600A030F7000030F800200000304A
:10013000A3000030A1000030A2000030A000210088
:0E014000951220008B168B177008F700FD3308
:020000040001F9
:02000E00A43913
:02001000FF1CD3
:00000001FF
